:1000000012C024C023C022C021C020C01FC01EC0F7
:100010001DC01CC01BC01AC019C018C017C016C014
:1000200015C014C013C011241FBECFE5D4E0DEBF3D
:10003000CDBF10E0A0E6B0E0EAEFFBE002C0059023
:100040000D92A436B107D9F7ADD5D5C5D9CFFC01EE
:100050000097F1F1148A158A168A178A108E118E6C
:10006000128E138E158E148E41E053E265E477E60E
:10007000408351836283738349E85BEA6DEC7FEED2
:1000800044835583668377834EEF5CED6AEB78E9B2
:10009000408751876287738746E754E562E370E1E2
:1000A000448755876687778740EF51EE62ED73ECA2
:1000B000408B518B628B738BDC01A25ABF4F1D9218
:1000C0001C92E05AFF4F1182108280E090E0089568
:1000D00081E090E008952F923F924F925F926F924D
:1000E0007F928F929F92AF92BF92CF92DF92EF92C8
:1000F000FF920F931F93CF93DF93CDB7DEB7C45614
:10010000D1400FB6F894DEBF0FBECDBFCD59DE4F44
:1001100099838883C356D140AE014F5F5F4F20E083
:1001200030E0CD59DE4F68817981C356D140620FEE
:10013000731FDB0190968C91909790E0982F882701
:100140006C01EE24D7FCE094FE2C91966C91C62AAB
:10015000FA01C192D192E192F192AF012C5F3F4F2F
:1001600020343105F1F69E012F5D3F4F7E01FFEDFA
:10017000EF1AFEEFFF0A8E010F5F1F4FB9012C5FD0
:100180003F4FFB0180819181A281B3818488958852
:10019000A688B78888259925AA25BB25F8018084DB
:1001A0009184A284B3840C5F1F4F88259925AA25CA
:1001B000BB25408151816281738184279527A627C1
:1001C000B727880F991FAA1FBB1F811DF901848FB4
:1001D000958FA68FB78F2E153F0581F6CD59DE4F2F
:1001E000A881B981C356D1404D905D906D907C90AF
:1001F0001397C35BDE4F488259826A827B82CD545B
:10020000D14014964D905D906D907C901797CF5A89
:10021000DE4F488259826A827B82C155D14018964E
:100220004D905D906D907C901B97CB5ADE4F48822D
:1002300059826A827B82C555D1401C964D905D9053
:100240006D907C901F97C75ADE4F488259826A8210
:100250007B82C955D14050964D905D906D907C90B9
:100260005397C35ADE4F488259826A827B82CD55AA
:10027000D140E1E0F0E0EC0FFD1FE05BFF4FCF5914
:10028000DE4FF983E883C156D1408E010F5F1F4FC7
:100290001801C75BDE4F488259826A827B82C9544B
:1002A000D140C75ADE4F488059806A807B80C9554B
:1002B000D140CB5ADE4F288139814A815B81C555B7
:1002C000D140CB5BDE4F288339834A835B83C5549F
:1002D000D140CF5ADE4F488159816A817B81C15517
:1002E000D140C35BDE4FC880D980EA80FB80CD540B
:1002F000D140D1010D911D912D913D911D014601DE
:100300005701ABE1B694A79497948794AA95D1F737
:10031000D701C601E5E0880F991FAA1FBB1FEA9508
:10032000D1F7882A992AAA2ABB2AB7E68B1AB6E8F7
:100330009B0ABDE7AB0AB5EABB0A800E911EA21E5E
:10034000B31E8A019B0100951095209530950421DC
:10035000152126213721CB5BDE4F88819981AA8127
:10036000BB81C554D14084239523A623B723082BF2
:10037000192B2A2B3B2B800E911EA21EB31EC75B8E
:10038000DE4F088119812A813B81C954D140800EFA
:10039000911EA21EB31E8A019B01F2E0369527959D
:1003A00017950795FA95D1F7DB01CA014EE1880F41
:1003B000991FAA1FBB1F4A95D1F7802B912BA22B07
:1003C000B32BCF5BDE4F88839983AA83BB83C15451
:1003D000D140CF59DE4FA881B981C156D1402A16EC
:1003E0003B0629F1C75BDE4F488259826A827B82D5
:1003F000C954D140CB5BDE4F488059806A807B80F6
:10040000C554D140CF5BDE4F088119812A813B81E1
:10041000C154D140CB5BDE4F088319832A833B83D1
:10042000C554D140B701A6017501640162CF1E0118
:1004300011E5210E311C21E030E02C0F3D1F20562C
:100440003F4FCF59DE4F39832883C156D140F10148
:1004500081919191A191B1911F01C75BDE4F88837A
:100460009983AA83BB83C954D140B501A401ABE1F0
:100470007695679557954795AA95D1F7950184018B
:10048000B5E0000F111F221F331FBA95D1F7402B83
:10049000512B622B732B4F55544166427149CF5BF0
:1004A000DE4F088119812A813B81C154D1400C253E
:1004B0001D252E253F25CB5BDE4F88819981AA81A2
:1004C000BB81C554D140082719272A273B27400F55
:1004D000511F621F731FC75BDE4F088119812A817C
:1004E0003B81C954D140400F511F621F731F440DFF
:1004F000551D661D771D97018601E2E0369527950B
:1005000017950795EA95D1F7FEE1CC0CDD1CEE1CA2
:10051000FF1CFA95D1F7C02AD12AE22AF32ACF5933
:10052000DE4F28813981C156D14022163306F9F0B9
:100530002C013D01CF5BDE4F88819981AA81BB816F
:10054000C154D140CB5BDE4F88839983AA83BB83A0
:10055000C554D140CF5BDE4FC882D982EA82FB828C
:10056000C154D140750164014A015B0170CF1E0185
:1005700091EA290E311CA1E0B0E0AC0FBD1FA051E3
:10058000BF4FC75BDE4FB983A883C954D140F10187
:1005900001911191219131911F01DB01CA01EBE120
:1005A000B695A79597958795EA95D1F72A013B01CE
:1005B000F5E0440C551C661C771CFA95D1F784298C
:1005C0009529A629B72984529344A44EB047800F99
:1005D000911FA21FB31FCF5BDE4F088119812A81B3
:1005E0003B81C154D1400C291D292E293F290821C6
:1005F00019212A213B21CF5BDE4F488059806A8038
:100600007B80C154D1404C205D206E207F20042986
:10061000152926293729800F911FA21FB31FCB5BF5
:10062000DE4F488059806A807B80C554D140840D5C
:10063000951DA61DB71D95018401E2E0369527950D
:1006400017950795EA95D1F7FEE1880C991CAA1C2D
:10065000BB1CFA95D1F7802A912AA22AB32AC75B3C
:10066000DE4F68807980C954D14026143704F9F0F0
:10067000CF5BDE4F088119812A813B81C154D14073
:10068000CB5BDE4F088319832A833B83C554D1405B
:10069000CF5BDE4FC882D982EA82FB82C154D1404F
:1006A000750164014A015B01AC01BD0170CF1E01FF
:1006B00011EF210E311C21E030E02C0F3D1F205C9A
:1006C0003E4FC75BDE4F39832883C954D140F101C7
:1006D00041905190619071901F01CB5BDE4F488239
:1006E00059826A827B82C554D1408C019D01EBE125
:1006F0003695279517950795EA95D1F72C013D0179
:10070000F5E0440C551C661C771CFA95D1F70429BA
:100710001529262937290A521E432D49354324011C
:10072000350144265526662677264C245D246E2402
:100730007F24040D151D261D371DCB5BDE4F488021
:1007400059806A807B80C554D140040D151D261D3B
:10075000371DCF5BDE4F488059806A807B80C15453
:10076000D140040D151D261D371D2A013B01E2E075
:100770007694679457944794EA95D1F7FEE1440F35
:10078000551F661F771FFA95D1F744295529662909
:100790007729C75BDE4F68807980C954D140261421
:1007A000370489F0CF5BDE4FC882D982EA82FB82B0
:1007B000C154D140750164014A015B01AC01BD0126
:1007C000D901C80184CFC35BDE4F488059806A805D
:1007D0007B80CD54D140040D151D261D371DCD59EC
:1007E000DE4FE881F981C356D14000831183228313
:1007F0003383CF5ADE4F488059806A807B80C15551
:10080000D140840D951DA61DB71D84839583A683B5
:10081000B783CB5ADE4F488059806A807B80C555AC
:10082000D140440D551D661D771D40875187628755
:100830007387C75ADE4F488059806A807B80C955CC
:10084000D140840C951CA61CB71C84869586A68670
:10085000B786C35ADE4F488059806A807B80CD5569
:10086000D140C40CD51CE61CF71CC08AD18AE28A90
:10087000F38A158E148ECC59DE4F0FB6F894DEBF76
:100880000FBECDBFDF91CF911F910F91FF90EF90E1
:10089000DF90CF90BF90AF909F908F907F906F90A0
:1008A0005F904F903F902F9008958F929F92AF92BC
:1008B000BF92CF92DF92EF92FF920F931F93CF934D
:1008C000DF93EC014115510519F480E090E065C01B
:1008D000009709F460C06115710509F45CC0FC0162
:1008E000E25AFF4F808191819E01205A3F4F79014A
:1008F000892B31F083E090E0F901918380834DC032
:10090000F90180819181009709F047C04B016B018B
:10091000C40ED51EAA24A394B12C8C149D04A9F254
:10092000F70180819181892B81F62C8D3D8DC90144
:1009300001969D8F8C8FF40141914F01FE01E20FD2
:10094000F31F468F4C895D896E897F89485F5F4FB1
:100950006F4F7F4F4C8B5D8B6E8B7F8B452B462B68
:10096000472B99F4088D198D2A8D3B8D0F5F1F4FF2
:100970002F4F3F4F088F198F2A8F3B8F012B022B50
:10098000032B19F4F701B182A0828034910529F676
:10099000CE01A1DBC2CF81E090E0DF91CF911F912A
:1009A0000F91FF90EF90DF90CF90BF90AF909F900E
:1009B0008F900895CF93DF93EC018C8D9D8D9C01DA
:1009C0002F5F3F4FFE01E80FF91F3D8F2C8FC89717
:1009D0000CF440C080E8868F8C8D9D8D803491050D
:1009E00054F49C012F5F3F4F3D8F2C8FFE01E80F89
:1009F000F91F168EF1CFCE016EDB8C8D9D8D883365
:100A0000910554F49C012F5F3F4F3D8F2C8FFE01C9
:100A1000E80FF91F168EF1CF888D998D2A8D3B8DA9
:100A2000FE01EA5AFF4F308331962083319690833E
:100A3000319680838C899D892E893F8931963083B8
:100A4000319620833196908331968083CE01DF9159
:100A5000CF9141CB80E8868F8C8D9D8D8833910519
:100A6000DCF69C012F5F3F4F3D8F2C8FFE01E80F7E
:100A7000F91F168EF1CFCF92DF92EF92FF920F9374
:100A80001F93CF93DF93EC016B01009709F453C0E0
:100A90006115710509F44FC0FC01E05AFF4F008158
:100AA00011810115110509F048C07C018EE5E80EA1
:100AB000F11CF70180819181892BC9F4CE017ADF85
:100AC00080E090E0FE01E80FF91F168E0196803459
:100AD0009105C1F71C8A1D8A1E8A1F8A188E198EDD
:100AE0001A8E1B8E81E090E0F7019183808320E0D5
:100AF00030E0D901AC7FAC0FBD1FF901E095F09556
:100B0000E370FF2783E0EE0FFF1F8A95E1F74D9119
:100B10005D916D917C9104C0769567955795479549
:100B2000EA95D2F7F60141936F012F5F3F4F2431D1
:100B30003105F9F602C001E010E0C801DF91CF9164
:100B40001F910F91FF90EF90DF90CF9008955D9BE4
:100B5000FECF8CB90895CF93DF93CDB7DEB7C657DC
:100B6000D1090FB6F894DEBF0FBECDBFCE010196FE
:100B70006EDA43E050E060E670E0CE01019695DE6B
:100B8000BE016D597F4FCE01019675DF80E090E088
:100B9000CA58DF4F0FB6F894DEBF0FBECDBFDF914E
:100BA000CF910895CF93DF9300D0CDB7DEB787E61E
:100BB00090E09A83898311BA8FEF82BB1BB888E0DB
:100BC0008AB986E880BD10BC89E189B910E01A3085
:100BD00018F4C1DF1F5FFBCF10E0E1E0F0E0EC0FA5
:100BE000FD1FE10FF11D8081882319F0B0DF1F5F29
:0A0BF000F4CF10E0EECFF894FFCF31
:040BFA0061626300D1
:00000001FF
